:020000040800F2
:1000000000060020E10100088D0D0008910D000898
:10001000E90D0008910D0008BD0D0008E30100087E
:10002000E3010008E3010008E30100087120000873
:10003000E3010008E3010008E3010008E301000810
:10004000E3010008E3010008E3010008E301000800
:10005000E3010008E30100081931000845310008F8
:10006000713100089D310008C9310008E301000822
:10007000E3010008E3010008E3010008E3010008D0
:10008000E3010008E3010008E3010008E3010008C0
:10009000E3010008E3010008E3010008F53100086E
:1000A000E3010008E3010008E3010008E3010008A0
:1000B0008D2F0008E3010008E3010008E3010008B8
:1000C000E3010008E3010008E3010008E301000880
:1000D000E3010008E3010008E3010008E301000870
:1000E0005D320008E3010008E3010008E3010008B5
:1000F000E3010008E3010008E3010008E301000850
:10010000E3010008E3010008E3010008E30100083F
:10011000E3010008E3010008E3010008E30100082F
:10012000E3010008E3010008E3010008E30100081F
:10013000E3010008E3010008E3010008E30100080F
:10014000E3010008E3010008E30100089927000823
:10015000E3010008E3010008E3010008E3010008EF
:10016000E3010008E3010008E3010008E3010008DF
:10017000E3010008E3010008E3010008E3010008CF
:10018000E3010008E3010008E3010008E3010008BF
:10019000E3010008E3010008E3010008E3010008AF
:1001A000E3010008E3010008E3010008E30100089F
:1001B000E3010008E3010008E3010008E30100088F
:1001C000E3010008E3010008E3010008E30100087F
:1001D000E3010008E3010008E3010008E30100086F
:1001E00002E000F000F8FEE772B6394880F30888B4
:1001F000384880F3098838484EF60851CEF200019D
:10020000086040F20000CCF200004EF63471CEF2ED
:1002100000010860BFF34F8FBFF36F8F40F2000003
:10022000C0F2F0004EF68851CEF200010860BFF334
:100230004F8FBFF36F8F4FF00000E1EE100A4EF6C4
:100240003C71CEF200010860062080F31488BFF3F1
:100250006F8F01F06BFF02F0FDFD4FF055301F492D
:100260001B4A91423CBF41F8040BFAE71C49194A6A
:1002700091423CBF41F8040BFAE71A491A4A1B4B5A
:100280009A423EBF51F8040B42F8040BF8E70020F5
:100290001749184A91423CBF41F8040BFAE701F0B4
:1002A00049FF02F02BFE144C144DAC4203DA54F813
:1002B000041B8847F9E700F041F8114C114DAC429E
:1002C00003DA54F8041B8847F9E701F031BF000056
:1002D000000600200022002000000008000000208E
:1002E000000600206836000800220020342200208A
:1002F000382200209C2D0020E0010008E0010008C9
:10030000E0010008E00100082DE9F04F2DED108A12
:10031000C1F80CD0C3689D46BDEC108ABDE8F08FD3
:10032000002383F311882846A047002001F0CEFA6D
:10033000FEE701F063FA00DFFEE7000038B501F0E8
:1003400069FE054601F08EFE0446D8B90F4B9D426A
:100350001AD001339D4218BF044641F2883504BFCC
:1003600001240025002001F05FFE0CB100F056F8DA
:1003700000F0E2FC00F074FB284600F0A7F800F063
:100380004DF8F9E70025EDE70546EBE7010007B07A
:1003900008B500F039FBA0F120035842584108BDD0
:1003A00007B541F21203022101A8ADF8043000F0B4
:1003B00047FB03B05DF804FB10B5202383F31188DD
:1003C0001248C3680BB101F01BFB114A0F48002310
:1003D0004FF47A7101F0C4FA002383F311880D4CB5
:1003E000236813B12368013B2360636813B163681A
:1003F000013B6360084B1B7833B9636823B9022063
:1004000000F014FC3223636010BD00BF38220020CE
:10041000B9030008542300204C220020254B264A13
:1004200010B51C461968013142D004339342F9D10A
:100430006268224B9A423BD9214B9B6803F10063CF
:1004400003F580339A4233D2002000F023FB1D4B8A
:100450000220187000F0E2FB1B4B1A6C00221A6499
:10046000196E1A66196E596C5A64596E5A665A6E2C
:100470005A6942F080025A615A6922F080025A6138
:100480005A691A6942F000521A611A6922F0005240
:100490001A611B6972B64FF0E0232021C3F8084DA2
:1004A000D4E9003281F311889D4683F30888104710
:1004B00010BD00BF0000010820000108FFFF000878
:1004C000002200204C220020003802402DE9F04F8D
:1004D00093B0B94B00902022FF210AA89D6800F03C
:1004E000D5FBB64A1378A3B9B5480121C360117092
:1004F000202383F31188C3680BB101F081FAB14A5C
:10050000AF4800234FF47A7101F02AFA002383F3F5
:100510001188009BAC4A03B11360AC49009C0023D6
:100520000B70536098469B461E469A46012000F089
:1005300075FB24B1A44B1B68002B00F00782002040
:1005400000F062FA0390039B002BF2DB012000F025
:100550005BFB039B213B122BE8D801A252F823F04E
:10056000AD050008D5050008610600082D05000846
:100570002D0500082D050008F5060008C108000833
:10058000DD0700083D080008650800088B08000822
:100590002D0500089D0800082D0500080F0900081A
:1005A000190600082D050008530900080220FFF76E
:1005B000EFFE002840F0F481009B0221B8F1000F0B
:1005C00008BF1C4605A841F21233ADF8143000F004
:1005D00037FAABE74FF47A7000F016FA071EEBDB40
:1005E0000220FFF7D5FE0028E6D0013F042F00F2DD
:1005F000D981DFE807F0031C1F222500052305939E
:10060000042105A800F01CFA0123BB404BEA0303B8
:100610005FFA83FB4FF0000A00F084FB26B10BF079
:100620000B030B2B08BF0024FFF7BAFE7EE76248DE
:100630000421E7E766480421E4E766480421E1E78E
:100640004FF01C09484600F027FA09F1040905900B
:10065000042105A800F0F4F9B9F12C0FF2D1D3E789
:10066000002EA9D00BF00B030B2BA5D10220FFF716
:100670008FFE074600289FD00120544E00F00AFA52
:100680000220307000F0CAFA4FF000085FFA88F9D3
:10069000484600F00FFA044688B90123022033705F
:1006A00000F0B2FA2546444B9B68AB421AD8474B40
:1006B00000251D70444BB8465D603E46ACE7484699
:1006C00000F008FA08F101080028DFD1B846044616
:1006D00041F21213022105A8ADF814303E4600F095
:1006E000AFF923E7284600F0D7F9013040F05D81EB
:1006F0000435D8E7002E3FF45FAF0BF00B030B2B54
:100700007FF45AAF314B0220187000F087FA322084
:1007100000F07AF9B0F10009FFF64EAF19F00307C7
:100720007FF44AAF244A926809EB050393423FF6EF
:1007300043AFB9F5807F3FF73FAF274BB9452ADC80
:10074000C820FFF725FE074600283FF435AF1F2DD0
:1007500011D8C5F120024A450AAB25F0030028BF95
:100760004A461D490192184400F06AFA019A1A4853
:10077000FF2100F08BFA4FEAA90317490193C9F34F
:100780008702284600F08AFA06460028A0D0019B7E
:1007900005EB830540E74FF47A70019300F034F9DC
:1007A0000390039A002AFFF607AF019B039A03F810
:1007B000012B0137C2E700BF002200205023002098
:1007C00038220020B9030008542300204C220020C6
:1007D0000422002008220020502200200220FFF7DF
:1007E000D7FD00283FF4E8AE00F09EF900283FF462
:1007F000E3AE0027B94612E01F2F1BD80A9B013336
:1008000018D027F0030348336B4453F8200C0590AD
:100810000422484605A900F0FBFA04378146654BDF
:100820009B68BB42E8D8CDF81490042105A800F0DD
:1008300007F9F1E6384600F02FF9E8E700236421D4
:1008400004A8049300F0F4F800287FF4B5AE022069
:10085000FFF79EFD00283FF4AFAE049800F04CF97E
:100860000590E2E70023642104A8049300F0E0F877
:1008700000287FF4A1AE0220FFF78AFD00283FF494
:100880009BAE049800F048F9EAE70220FFF780FDEC
:1008900000283FF491AE00F057F9E1E70220FFF79E
:1008A00077FD00283FF488AE05A9142000F052F926
:1008B00004210746049004A800F0C2F83946B5E7C1
:1008C000322000F0A1F8071EFFF676AEBB077FF4DA
:1008D00073AE384A926807EB0A0393423FF66CAE58
:1008E0000220FFF755FD00283FF466AE27F003070E
:1008F0005744BA453FF490AE504600F0CDF804217D
:10090000059005A800F09CF80AF1040AF1E74FF4FD
:100910007A70FFF73DFD00283FF44EAE00F004F979
:10092000002844D00A9B01330BD008220AA90020DA
:1009300000F0B4F900283AD02022FF210AA800F0E4
:10094000A5F9FFF72DFD1C4800F0C6FF13B0BDE868
:10095000F08F002E3FF430AE0BF00B030B2B7FF427
:100960002BAE0023642105A8059300F061F807462B
:1009700000287FF421AE0220FFF70AFD81460028FF
:100980003FF41AAEFFF70CFD41F2883000F0A4FFEF
:10099000059800F0F9F94E4600F0C4F93C46C5E56B
:1009A000064639E64FF0000A06E6B84690E63746B6
:1009B0008EE600BF00220020A086010070B50F4B1C
:1009C0001B780133DBB2012B05460C4610D80C48CE
:1009D00001684FF47A730E6AA2FB0332294622465D
:1009E000B047844204D1074B00221A70012070BD29
:1009F0004FF4FA7000F070FF0020F8E70C2200209E
:100A0000C82500208823002007B5002302460121C5
:100A10000DF107008DF80730FFF7D0FF20B19DF8EA
:100A2000070003B05DF804FB4FF0FF30F9E700006A
:100A300008B50A460421FFF7C1FF013808BD0000D0
:100A400030B4054C2368DD69044B0A46AC460146C8
:100A5000204630BC604700BFC8250020A0860100AA
:100A600070B501F0DDF9094E094C30800025206891
:100A70003388834208D901F0CDF923680544013356
:100A8000B5F5803F2360F2D370BD00BF8A230020FC
:100A90005C23002001F072BA00F1006000F58030A4
:100AA0000068704700F10060920000F5803001F0AE
:100AB000FDB90000054B1A68054B1B889B1A834241
:100AC00002D9104401F0A6B9002070475C23002031
:100AD0008A23002038B5074D04462868204401F0D9
:100AE000A1F928B928682044BDE8384001F0B2B91E
:100AF00038BD00BF5C23002010F003030AD1B0F51D
:100B0000047F05D200F10050A0F51040D0F8003865
:100B1000184670470023FBE700F10050A0F5104095
:100B2000D0F8100A70470000064991F8243033B11C
:100B30000023086A81F824300822FFF7B3BF0120A0
:100B4000704700BF60230020014B1868704700BF4A
:100B5000002004E070B5294B1B68C3F30B021B0C8B
:100B600062B140F21344A24234D040F21944A2428E
:100B700032D040F22144A24230D10322204C0C2535
:100B800005FB0242556842F20102934228D0B3F5B8
:100B9000805F27D041F20102934225D041F2030247
:100BA000934223D041F20702934214BF3F233123E3
:100BB00001380844013D0C4684421DD215F9016FED
:100BC000621CAEB92C259042257001D9A21C63701D
:100BD000501A70BD0122D1E70222CFE7094DD2E7BA
:100BE0003323E5E74123E3E75A23E1E75923DFE72E
:100BF00002F8016C1446DFE72246E9E7002004E032
:100C00006C33000840330008022802BF024B4FF447
:100C100000129A61704700BF00040240022802BF20
:100C2000014B20229A61704700040240022801BF54
:100C3000024A536983F02003536170470004024065
:100C400010B50023934200D110BDCC5CC4540133D5
:100C5000F8E7000010B5013810F9013F3BB191F9F8
:100C600000409C4203D11AB10131013AF4E71AB1B4
:100C700091F90020981A10BD1046FCE70346024681
:100C8000D01A12F9011B0029FAD170470244034619
:100C9000934200D1704703F8011BF9E72DE9F843AF
:100CA0001F4D144695F824200746884622B9DFF8E0
:100CB00070906CB9012009E02B6A03EB8203834238
:100CC000F5D0FFF731FF0028F1D10020BDE8F8830F
:100CD00095F824302BB92022FF2148462F62FFF7D8
:100CE000D5FF95F82400C0F10802A24228BF224691
:100CF000D6B24146920005EB8000FFF7A1FF95F8C0
:100D00002430A41B1E44F6B2082E17449044E4B2CB
:100D100085F82460CDD1FFF707FF0028C9D1D4E7BB
:100D200060230020024B1A78024B1A70704700BFF4
:100D3000882300200C22002010B50F4C0F4800F033
:100D400005F921460D4800F02DF924680C48626D24
:100D5000D2F8043843F00203C2F8043800F0BCFDB6
:100D60000849204600F024FA626DD2F8043823F0D6
:100D70000203C2F8043810BD60340008C825002002
:100D800040420F006834000870470000FEE7000092
:100D900000B59BB0EFF3098168226846FFF750FF6A
:100DA000EFF30583044B9A6BDA6A9A6A9A6A9A6A35
:100DB0009A6A9A6A9B6AFEE700ED00E000B59BB074
:100DC000EFF3098168226846FFF73AFFEFF30583E6
:100DD000044B9A6B9A6A9A6A9A6A9A6A9A6A9B6AA6
:100DE000FEE700BF00ED00E000B59BB0EFF3098126
:100DF00068226846FFF724FFEFF30583034B5A6B25
:100E00009A6A9A6A9A6A9A6A9B6AFEE700ED00E01B
:100E100030B5094D0A44914200D130BD11F8013B73
:100E20005840082340F30004013B2C4013F0FF031B
:100E300084EA5000F6D1EEE72083B8ED0023054A9E
:100E400019460133102BC2E9001102F10802F8D152
:100E5000704700BF8C230020026843681143016083
:100E600003B118477047000013B5446BD4F89434AD
:100E70001A681178042915D1217C022912D1197917
:100E8000128901238B4013420CD101A904F14C00BB
:100E900001F0E8FED4F89444019B217902462068D1
:100EA00000F0CEF902B010BD143001F071BE0000A8
:100EB0004FF0FF33143001F06BBE00004C3001F0F6
:100EC0003DBF00004FF0FF334C3001F037BF000052
:100ED000143001F03FBE00004FF0FF31143001F03C
:100EE00039BE00004C3001F009BF00004FF0FF3266
:100EF0004C3001F003BF00000020704710B5D0F85F
:100F000094341A6811780429044617D1017C022907
:100F100014D11979528901238B4013420ED1143018
:100F200001F0D2FD024648B1D4F894044FF4807326
:100F300041790068BDE8104000F070B910BD0000B4
:100F4000406BFFF7DBBF0000704700007FB5124B1E
:100F5000036000234360C0E90233012502260F4BE2
:100F6000057404460290019300F18402294600961C
:100F70004FF48073143001F083FD094B0294CDE9E6
:100F8000006304F523724FF48073294604F14C008A
:100F900001F044FE04B070BD9C330008410F00080E
:100FA000690E00080B68202282F311880A7903EB8E
:100FB000820290614A79093243F822008A7912B19B
:100FC00003EB8203986102230374C0F89414002396
:100FD00083F311887047000038B5037F044613B1CE
:100FE00090F85430ABB9201D01250221FFF734FFE2
:100FF00004F1140025776FF0010100F095FC84F8EE
:10100000545004F14C006FF00101BDE8384000F08D
:101010008BBC38BD10B5012104460430FFF71CFF1E
:101020000023237784F8543010BD000038B50446FF
:101030000025143001F03CFD04F14C00257701F04F
:1010400005FE201D84F854500121FFF705FF2046BE
:10105000BDE83840FFF752BF90F8443003F060031A
:10106000202B07D190F84520212A4FF0000303D808
:101070001F2A06D800207047222AFBD1C0E90E3370
:1010800003E0034A82630722C263036401207047BE
:101090000D22002037B5D0F894341A68117804294D
:1010A00004461AD1017C022917D11979128901232A
:1010B0008B40134211D100F14C05284601F084FE0B
:1010C00058B101A9284601F0CDFDD4F89444019B04
:1010D00021790246206800F0B3F803B030BD00006B
:1010E000F0B500EB810385B09E6904460D46FEB164
:1010F000202383F3118804EB8507301D0821FFF7B7
:10110000ABFEFB685B691B6806F14C001BB10190EC
:1011100001F0B6FD019803A901F0A4FD024648B113
:10112000039B2946204600F08BF8002383F31188A7
:1011300005B0F0BDFB685A691268002AF5D01B8A19
:10114000013B1340F1D104F14402EAE7093138B51B
:1011500050F82140DCB1202383F31188D4F8942483
:101160001368527903EB8203DB689B695D6845B1C4
:1011700004216018FFF770FE294604F1140001F005
:10118000ADFC2046FFF7BAFE002383F3118838BD7B
:101190007047000001F060B8012303700023C0E92C
:1011A0000133C36183620362C362436203637047B6
:1011B00038B50446202383F311880025C0E9035580
:1011C000C0E90555416001F057F80223237085F30B
:1011D000118838BD70B500EB810305465069DA60AF
:1011E0000E46144618B110220021FFF74FFDA069EA
:1011F00018B110220021FFF749FD31462846BDE80D
:10120000704001F003B90000826802F001128260B0
:101210000022C0E90422826101F082B9F0B400EB3F
:1012200081044789E4680125A4698D403D434581D7
:1012300023600023A2606360F0BC01F09DB9000050
:10124000F0B400EB81040789E468012564698D40EE
:101250003D43058123600023A2606360F0BC01F080
:1012600015BA000070B50223002504460370C0E9DA
:101270000255C0E90455C564856180F8345001F019
:1012800061F863681B6823B129462046BDE87040B9
:10129000184770BD037880F8503005230370436809
:1012A0001B6810B504460BB1042198470023A360C6
:1012B00010BD000090F85020436802701B680BB10D
:1012C000052118477047000070B590F83430044687
:1012D00013B1002380F8343004F14402204601F0B9
:1012E00041F963689B68B3B994F8443013F0600522
:1012F00035D00021204601F08FFB0021204601F06F
:1013000081FB63681B6813B10621204698470623BA
:1013100084F8343070BD204698470028E4D0B4F8F3
:101320004A30E26B9A4288BFE36394F94430E56B3C
:10133000002B4FF0200380F20381002D00F0F2809B
:10134000092284F8342083F311880021D4E90E2384
:101350002046FFF775FF002383F31188DAE794F83E
:10136000452003F07F0343EA022340F20232934216
:1013700000F0C58021D8B3F5807F48D00DD8012B6F
:101380003FD0022B00F09380002BB2D104F14C022D
:10139000A2630222E2632364C1E7B3F5817F00F018
:1013A0009B80B3F5407FA4D194F84630012BA0D1A7
:1013B000B4F84C3043F0020332E0B3F5006F4DD087
:1013C00017D8B3F5A06F31D0A3F5C063012B90D827
:1013D000636894F846205E6894F84710B4F8483083
:1013E0002046B047002884D04368A3630368E363C2
:1013F0001AE0B3F5106F36D040F6024293427FF404
:1014000078AF5C4BA3630223E3630023C3E794F844
:101410004630012B7FF46DAFB4F84C3023F002035B
:10142000C4E90E55A4F84C30256478E7B4F844308C
:10143000B3F5A06F0ED194F8463084F84E302046B4
:1014400000F0D8FF63681B6813B10121204698475C
:10145000032323700023C4E90E339CE704F14F03F8
:10146000A3630123C3E72378042B10D1202383F344
:1014700011882046FFF7C8FE85F3118803216368B1
:1014800084F84F5021701B680BB12046984794F8A0
:101490004630002BDED084F84F300423237063687D
:1014A0001B68002BD6D0022120469847D2E794F83B
:1014B00048301D0603F00F0120460AD501F044F81C
:1014C000012804D002287FF414AF2B4B9AE72B4B52
:1014D00098E701F02BF8F3E794F84630002B7FF4FF
:1014E00008AF94F8483013F00F01B3D01A06204625
:1014F00002D501F0A5FAADE701F098FAAAE794F851
:101500004630002B7FF4F5AE94F8483013F00F010D
:10151000A0D01B06204602D501F07EFA9AE701F022
:1015200071FA97E7142284F8342083F311882B464C
:101530002A4629462046FFF771FE85F31188E9E621
:101540005DB1152284F8342083F311880021D4E999
:101550000E232046FFF762FEFDE60B2284F83420BE
:1015600083F311882B462A4629462046FFF768FE5A
:10157000E3E700BFCC330008C4330008C8330008D9
:1015800038B590F834300446002B3ED0063BDAB232
:101590000F2A34D80F2B32D8DFE803F03731310867
:1015A000223231313131313131313737C56BB0F819
:1015B0004A309D4214D2C3681B8AB5FBF3F203FB89
:1015C00012556DB9202383F311882B462A462946EC
:1015D000FFF736FE85F311880A2384F834300EE0D5
:1015E000142384F83430202383F3118800231A460F
:1015F00019462046FFF712FE002383F3118838BDF9
:10160000036C03B198470023E7E70021204601F06F
:1016100003FA0021204601F0F5F963681B6813B155
:101620000621204698470623D7E7000010B590F81A
:101630003430142B044629D017D8062B05D001D8F6
:101640001BB110BD093B022BFBD80021204601F045
:10165000E3F90021204601F0D5F963681B6813B156
:10166000062120469847062319E0152BE9D10B23C4
:1016700080F83430202383F3118800231A4619465A
:10168000FFF7DEFD002383F31188DAE7C3689B6967
:101690005B68002BD5D1036C03B19847002384F815
:1016A0003430CEE7024B0022C3E900339A60704722
:1016B0000C240020002303748268054B1B68996882
:1016C0009142FBD25A6803604260106058607047D4
:1016D0000C24002008B5202383F31188037C032BFE
:1016E00005D0042B0DD02BB983F3118808BD4369B5
:1016F00000221A604FF0FF334361FFF7DBFF002346
:10170000F2E7D0E9003213605A60F3E70023037474
:101710008268054B1B6899689142FBD85A68036040
:1017200042601060586070470C240020054B196916
:101730000874186802681A60536018610123037402
:10174000FEF7E2BD0C24002030B54B1C0B4D87B0DA
:10175000044610D02B690A4A01A800F001F920467E
:10176000FFF7E4FF049B13B101A800F049F92B69CE
:10177000586907B030BDFFF7D9FFF8E70C24002007
:10178000D516000838B50C4D41612B6981689A68FF
:101790009142044603D8BDE83840FFF78BBF184696
:1017A000FFF7B4FF01232C61014623742046BDE8F6
:1017B0003840FEF7A9BD00BF0C240020044B1A6876
:1017C0001B6990689B68984294BF00200120704775
:1017D0000C24002010B5084C236820691A68226088
:1017E0005460012223611A74FFF790FF01462069BB
:1017F000BDE81040FEF788BD0C240020FFF7EABFCB
:10180000FEE7000010B50C4CFFF74CFF00F09AF813
:101810000A498022204600F021F8012344F8180CE0
:10182000037400F035FC002383F3118862B604488A
:10183000BDE8104000F032B834240020D033000856
:10184000E033000800F014B9034A516853685B1A8A
:101850009842FBD8704700BF001000E0826002226F
:10186000028270478368A3F17C0243F80C2C026962
:1018700043F83C2C426943F8382C074A43F81C2CA7
:10188000C26843F8102C022203F8082C002203F847
:10189000072CA3F1180070472103000810B520237E
:1018A00083F31188FFF7DEFF00210446FFF76AFF8C
:1018B000002383F31188204610BD0000024B1B69F2
:1018C00058610F20FFF732BF0C240020202383F340
:1018D0001188FFF7F3BF000008B50146202383F30A
:1018E00011880820FFF730FF002383F3118808BD1B
:1018F00049B1064B42681B6918605A601360436027
:101900000420FFF721BF4FF0FF3070470C24002068
:101910000368984206D01A68026050605961184600
:10192000FFF7C8BE7047000038B504460D46206872
:10193000844200D138BD036823605C604561FFF7D5
:10194000B9FEF4E7054B03F11402C3E905224FF099
:10195000FF310022C3E90712704700BF0C240020AA
:10196000F8B50D46C0E90323044601F05FFA0A2DDD
:101970002946224D2F4638BF0A2157F8143FBB4253
:101980000AD12862C5E905440844C4E90033A160CE
:10199000BDE8F84001F038BA2A6AD3F808C0801AC6
:1019A0000E1820D34FF0000C9E68B04216D80244A7
:1019B000BB422A6201D0361A9E606B699A688A42DD
:1019C00018D35A682360626014605C60A1609A68F2
:1019D000521A9A604FF0FF33EB61F8BDC3F808C0AC
:1019E000801B1B68E0E7664502D2901901F01AFAE5
:1019F0003146E2E71B68891AE0E700BF0C240020AB
:101A000038B51A4D03682A4652F8141F88424FF021
:101A100000010AD04468934223605C60C16003D037
:101A20009A6881680A449A6038BD93426B615A6033
:101A3000C16003D1BDE8384001F0EEB99A68816811
:101A40002C6A0A449A6001F0F1F96B699B68021BE9
:101A50009342E9D91C44201A0928286A98BF02F148
:101A60000A031844BDE8384001F0DCB90C2400201A
:101A70002DE9F84F1E4D2E46002756F8144FB84654
:101A800001F0D4F92B6AA268A0EB03094A451CD8DF
:101A90004FF0200AA2682B6AD4F80CB013442B62D2
:101AA0002368B3425E60A9EB02096B61E76001D174
:101AB00001F0B2F988F311882069D8478AF31188B8
:101AC0006C69A3684B45E5D9DAE76A69B2420DD083
:101AD000916828620B441B1A9360A3680A2B2CBFE1
:101AE000C0180A30BDE8F84F01F09CB9BDE8F88F86
:101AF0000C24002000207047FEE700007047000023
:101B00004FF0FF307047000002290CD0032904D0A9
:101B10000129074818BF00207047032A05D8054847
:101B200000EBC2007047044870470020704700BFB8
:101B3000C4340008142200207834000870B59AB02C
:101B40000546084601A9144600F098F801A8FFF7D9
:101B500095F8431C5B00C5E9003400222370032381
:101B60006370C6B201AB02341046D1B28E4204F1AA
:101B7000020401D81AB070BD13F8011B04F8021C4E
:101B800004F8010C0132F0E708B5202383F3118833
:101B90000348FFF77FFA002383F3118808BD00BFD5
:101BA000C825002007B5052917D8DFE801F0191668
:101BB00003191920202383F31188104A0190012171
:101BC000FFF708FB01980E4A0221FFF703FB0D48BF
:101BD000FFF72CFA002383F3118803B05DF804FBB0
:101BE000202383F311880748FFF7F6F9F2E7202353
:101BF00083F311880348FFF70DFAEBE71834000868
:101C00003C340008C825002038B50C4D0C4C0D495B
:101C10002A4604F10800FFF791FF05F1CA0204F11A
:101C200010000949FFF78AFF05F5CA7204F1180090
:101C30000649BDE83840FFF781BF00BF902A002069
:101C400014220020F8330008023400080D34000884
:101C500070B5044608460D46FFF710F8C6B2204698
:101C6000013403780BB9184670BD32462946FEF799
:101C7000F1FF0028F3D10120F6E700002DE9F84F2D
:101C800005460C46FEF7FAFF2B49C6B22846FFF779
:101C9000DFFF08B10436F6B228492846FFF7D8FF1F
:101CA00008B11036F6B2632E0DD8DFF88C90DFF84D
:101CB0008CA0DFF89480DFF894B0214F2E7846B9DD
:101CC0002670BDE8F88F29462046BDE8F84F01F0A0
:101CD0002FBB252E2CD1072249462846FEF7BAFFF6
:101CE00050B93B6823607B6863603B892381BB7A82
:101CF000A37207350B34E1E7082251462846FEF768
:101D0000A9FFA8B90F4BA21C19780909023218F8CB
:101D1000011002F8041C13F8011B01F00F015B45D0
:101D200018F8011002F8031CEED118340835C5E785
:101D300004F8016B0135C1E7E43400080D340008F4
:101D4000EC340008107AFF1FF83400081C7AFF1FDB
:101D5000BFF34F8F024AD368DB03FCD4704700BF48
:101D6000003C024008B5094B1B7873B9FFF7F0FF40
:101D7000074B1A69002ABFBF064A5A6002F188322F
:101D80005A601A6822F480621A6008BDEE2C0020A6
:101D9000003C02402301674508B50B4B1B7893B903
:101DA000FFF7D6FF094B1A6942F000421A611A6820
:101DB00042F480521A601A6822F480521A601A683B
:101DC00042F480621A6008BDEE2C0020003C024004
:101DD0000B28F0B516D80C4C0C4923787BB90C4D68
:101DE0000E460C234FF0006255F8047B46F8042B96
:101DF000013B13F0FF033A44F6D10123237051F85D
:101E00002000F0BD0020FCE7202D0020F02C002059
:101E10000C350008014B53F8200070470C350008C2
:101E20000C2070470B2810B5044601D9002010BDC6
:101E3000FFF7CEFF064B53F824301844C21A0BB9F3
:101E40000120F4E712680132F0D1043BF6E700BF4D
:101E50000C3500080B2810B5044621D8FFF778FF91
:101E6000FFF780FF0F4AF323D360C300DBB243F4D4
:101E7000007343F002031361136943F48033136169
:101E8000FFF766FFFFF7A4FF074B53F8241000F09D
:101E9000D9F8FFF781FF2046BDE81040FFF7C2BF29
:101EA000002010BD003C02400C350008F8B512F0CF
:101EB0000103144642D18218B2F1016F57D22D4B63
:101EC0001B6813F0010352D02B4DFFF74BFFF32398
:101ED000EB60FFF73DFF40F20127032C15D824F0FB
:101EE00001046618244C401A40F20117B1422369DC
:101EF00000EB010524D123F001032361FFF74CFF20
:101F00000120F8BD043C0430E7E78307E7D12B69E3
:101F100023F440732B612B693B432B6151F8046B15
:101F20000660BFF34F8FFFF713FF03689E42E9D0AF
:101F30002B6923F001032B61FFF72EFF0020E0E760
:101F400023F44073236123693B4323610B882B8077
:101F5000BFF34F8FFFF7FCFE2D8831F8023BADB287
:101F6000AB42C3D0236923F001032361E4E71846A1
:101F7000C7E700BF00380240003C0240084908B5EE
:101F80000B7828B11BB9FFF7EDFE01230B7008BDDC
:101F9000002BFCD0BDE808400870FFF7FDBE00BF75
:101FA000EE2C002010B50244064BD2B2904200D174
:101FB00010BD441C00B253F8200041F8040BE0B2FD
:101FC000F4E700BF502800400F4B30B51C6F2404CD
:101FD00007D41C6F44F400741C671C6F44F4004465
:101FE0001C670A4C236843F4807323600244084B47
:101FF000D2B2904200D130BD441C00B251F8045B13
:1020000043F82050E0B2F4E700380240007000408E
:102010005028004007B5012201A90020FFF7C2FFA8
:10202000019803B05DF804FB13B50446FFF7F2FF17
:10203000A04205D0012201A900200194FFF7C4FFAE
:1020400002B010BD70470000044BD3F874389B00F9
:1020500042BF034B01221A70704700BF003002409C
:10206000212D0020014B1878704700BF212D002042
:10207000EFF3098305494A6B22F001024A63683392
:1020800083F30988002383F31188704700EF00E091
:10209000202080F3118862B60C4B0D4AD96821F4D8
:1020A000E0610904090C0A43DA60D3F8FC2009490D
:1020B00042F08072C3F8FC200A6842F001020A6014
:1020C0001022DA7783F82200704700BF00ED00E0AD
:1020D0000003FA05001000E010B5202383F31188F7
:1020E0000E4B5B6813F4006314D0F1EE103AEFF37B
:1020F0000984683C4FF08073E361094BDB6B236616
:1021000084F30988FFF75AFB10B1064BA36110BD99
:10211000054BFBE783F31188F9E700BF00ED00E012
:1021200000EF00E0330300083603000870470000AA
:10213000FEE700000A4B0B480B4A90420BD30B4BB7
:10214000DA1C121AC11E22F003028B4238BF002291
:102150000021FEF79BBD53F8041B40F8041BECE77D
:102160009C3600089C2D00209C2D00209C2D0020DA
:1021700070B5D0E915439E6800224FF0FF3504EB9F
:1021800042135101D3F800090028BEBFD3F800095B
:1021900040F08040C3F80009D3F8000B0028BEBF10
:1021A000D3F8000B40F08040C3F8000B01326318F5
:1021B0009642C3F80859C3F8085BE0D24FF0011308
:1021C000C4F81C3870BD00001D4B03EB80022DE9E4
:1021D000F043D2F80CC05D6DDCF81420461CD2F838
:1021E00000E005EB063605EB40185168714509D350
:1021F000D5F834380122824023EA0203C5F8343886
:10220000BDE8F083BCF81040AEEB0103A34228BF49
:102210002346D8F81849A4B2B3EB840FF0D89468D9
:10222000A4F1040959F8047F3760A4EB09071F449F
:10223000042FF7D81C44194494605160D5E700BFBF
:10224000242D0020890141F02001016103699B06D2
:10225000FCD41220FFF7F8BA10B5054C2046FEF763
:102260009BFF4FF0A0436365024BA36510BD00BF09
:10227000242D00206035000870B50378012B054639
:1022800050D12A4B446D98421BD1294B5A6B42F0D6
:1022900080025A635A6D42F080025A655A6D5A693B
:1022A00042F080025A615A6922F080025A610E217E
:1022B00043205B6900F0CEFB1E4BE3601E4BC4F86D
:1022C00000380023C4F8003EC02323606E6D4FF435
:1022D0000413A3633369002BFCDA012333610C2060
:1022E000FFF7B2FA3369DB07FCD41220FFF7ACFA30
:1022F0003369002BFCDA0026A6602846FFF738FF7A
:102300006B68C4F81068DB68C4F81468C4F81C680B
:102310004BB90A4BA3614FF0FF336361A36843F0ED
:102320000103A36070BD064BF4E700BF242D00201D
:10233000003802404014004003002002003C30C03E
:10234000083C30C0F8B5446D054600212046FFF733
:1023500079FFA96D00234FF001128F68C4F834385B
:102360004FF00066C4F81C284FF0FF3004EB431216
:1023700001339F42C2F80069C2F8006BC2F8080935
:10238000C2F8080BF2D20B686A6DEB65636210232A
:102390001361166916F01006FBD11220FFF754FAEC
:1023A000D4F8003823F4FE63C4F80038A36943F47A
:1023B000402343F01003A3610923C4F81038C4F884
:1023C00014380A4BEB604FF0C043C4F8103B084B85
:1023D000C4F8003BC4F81069C4F80039EB6D03F190
:1023E000100243F48013EA65A362F8BD3C3500088F
:1023F00040800010426D90F84E10D2F8003823F45F
:10240000FE6343EA0113C2F8003870472DE9F84330
:1024100000EB81030C460FFA81F9D968456D0E680F
:1024200006F00306731E022B05EB44134FF0000267
:10243000C3F8102B04F110024FF0010398BFB6044B
:1024400003FA02F38A698CBF334E06F18056804648
:1024500098BF06F500466001002A39D04F8A04F182
:10246000580252013743AF50D5F81C281343C5F822
:102470001C382B180022C3F810294A690127631E53
:10248000A74092B30A8A898B9208012988BF4A43E0
:102490004033D8F85C1005EB8303501841EA024141
:1024A000C8F85C00596028462146FFF7CBFE08EBD0
:1024B0008900C3681B8A43EA845348346401334368
:1024C0002B51D5F81C383B43C5F81C38BDE8F883C0
:1024D00005EB4917D7F8002B22F40042C7F8002B70
:1024E000D5F81C2822EA0303C1E704F13F0305EBFA
:1024F00083030A4A5A6021462846FFF7A3FE05EBEC
:102500004913D3F8002922F40042C3F80029D5F872
:102510001C3823EA0703D7E70080001000040002FC
:10252000826D1268C265FFF723BE00005831436D0B
:1025300049015B5813F4004004D013F4001F0CBF92
:1025400002200120704700004831436D49015B586B
:1025500013F4004004D013F4001F0CBF022001202C
:102560007047000000EB8101CB68196A0B681360AB
:102570004B6853607047000000EB810330B5DD68A5
:10258000AA691368D36019B9402B84BF4023136034
:102590006B8A1468426D1C44013CB4FBF3F4634342
:1025A000033323F0030302EB411043EAC44343F037
:1025B000C043C0F8103B2B6803F00303012B09B2A2
:1025C0000ED1D2F8083802EB411013F4807FD0F816
:1025D000003B14BF43F0805343F00053C0F8003B6E
:1025E00002EB4112D2F8003B43F00443C2F8003B37
:1025F00030BD00002DE9F041234D6E6D06EB401318
:102600000446D3F8087BC3F8087B38070AD5D6F808
:102610001438190706D505EB84032146DB682846E4
:102620005B689847FA071FD5D6F81438DB071BD527
:1026300005EB8403D9688B69C4B9488A5A68B2FB30
:10264000F0F600FB16228AB91868DA6890420DD2BB
:10265000121AC3E90024202383F311880A48214673
:10266000FFF78AFF84F31188BDE8F0816B890122AE
:10267000A24023EA02036B81CB68002BF4D02146F1
:102680000148BDE8F0411847242D002000EB8103EC
:1026900070B5DD68436D6C692668E6604A014EBB23
:1026A0001A444FF40020C2F810092A6802F003020D
:1026B000012A0AB20ED1D3F8080803EB421410F431
:1026C000807FD4F8000914BF40F0805040F00050E3
:1026D000C4F8000903EB4212D2F8000940F00440AC
:1026E000C2F80009D3F8340801228A400243C3F833
:1026F000342870BD19B9402E84BF40202060206866
:102700002E8A8419013CB4FBF6F440EAC44040F040
:1027100000501A44C7E70000F8B504461D48456D4F
:1027200005EB4413D3F80869C3F80869F10717D516
:10273000D5F81038DA0713D500EB8403D9684B6954
:102740001F68DA68974218D2D21B00271A605F60B0
:10275000202383F311882146FFF798FF87F3118820
:10276000330616D5D5F834280123A340134210D0E0
:102770002046BDE8F840FFF727BD03890122A240AB
:1027800023EA020303818B68002BE9D02146984796
:10279000E6E7F8BD242D00202DE9F74F984C666D33
:1027A0007569B3691D4015F48058756107D02046DE
:1027B000FEF758FD03B0BDE8F04FFFF78DBC002DCC
:1027C00012DAD6F8003E8E489F071EBFD6F8003EAC
:1027D00023F00303C6F8003ED6F8043823F00103C3
:1027E000C6F80438FEF766FD280505D58448FFF7CE
:1027F000BFFC8348FEF74EFDA9040CD5D6F8083877
:1028000013F0060FF36823F470530CBF43F4105316
:1028100043F4A053F3602A0704D56368DB680BB167
:1028200077489847EB0274D4AF0227D5D4F8549078
:10283000DFF8CCB100274FF0010A09EB4712D2F8BC
:10284000003B03F44023B3F5802F11D1D2F8003BB5
:10285000002B0DDA63890AFA07F223EA0203638187
:1028600004EB8703DB68DB6813B1394658469847A9
:10287000A36D01379B68FFB29F42DED9E80617D5EA
:10288000676D3A6AC2F30A1002F00F0302F4F01205
:10289000B2F5802F00F08880B2F5402F08D104EB0C
:1028A00083030022DB681B6A07F5805790426DD1D5
:1028B0002903D6F8184813D5E20302D50020FFF704
:1028C00099FEA30302D50120FFF794FE670302D50A
:1028D0000220FFF78FFE260302D50320FFF78AFEB2
:1028E0006D037FF567AFE00702D50020FFF714FF07
:1028F000A10702D50120FFF70FFF620702D50220D2
:10290000FFF70AFF23077FF555AF0320FFF704FF0A
:1029100050E7636DDFF8E8B0019300274FF0010A3C
:10292000A36D9B685FFA87F999453FF67DAF019BE0
:1029300003EB4913D3F8002902F44022B2F5802FAB
:1029400022D1D3F80029002A1EDAD3F8002942F058
:102950009042C3F80029D3F80029002AFBDB606D00
:102960004946FFF76FFC23890AFA09F223EA0203BA
:10297000238104EB8903DB689B6813B14946584601
:1029800098474846FFF720FC0137C9E7910708BF81
:10299000D7F80080072A98BF03F8018B02F10102E3
:1029A00098BF4FEA182881E7023304EB830207F54A
:1029B00080575268D2F818C0DCF80820DCE9001C07
:1029C000A1EB0C0C002188420AD104EB830463685C
:1029D0009B699A6802449A605A6802445A6067E7A1
:1029E00011F0030F08BFD7F800808C4588BF02F8AC
:1029F000018B01F1010188BF4FEA1828E3E700BF0E
:102A0000242D0020436D03EB4111D1F8003B43F42A
:102A10000013C1F8003B7047436D03EB4111D1F83F
:102A2000003943F40013C1F800397047436D03EBDC
:102A30004111D1F8003B23F40013C1F8003B70476B
:102A4000436D03EB4111D1F8003923F40013C1F8B1
:102A50000039704700F1604303F561430901C9B2D1
:102A600083F80013012200F01F039A4043099B00E2
:102A700003F1604303F56143C3F880211A60704796
:102A800030B5039C0172043304FB0325C0E90653EF
:102A9000049B03630021059BC160C0E90000C0E9FD
:102AA0000422C0E90842C0E90A11436330BD0000B6
:102AB000416A0022C0E90411C0E90A22C2606FF035
:102AC0000101FEF731BF0000D0E90432934201D189
:102AD000C2680AB9181D7047002070470369196061
:102AE000C2680132C260C2691344826903619342C1
:102AF00024BF436A03610021FEF70ABF38B50446CC
:102B00000D46E3683BB16269131D1268A36213446A
:102B1000E362002007E0237A33B929462046FEF716
:102B2000E7FE0028EDDA38BD6FF00100FBE700009A
:102B3000C368C269013BC36043691344826943614E
:102B4000934224BF436A436100238362036B03B152
:102B50001847704770B52023044683F31188866AAE
:102B60003EB9FFF7CBFF054618B186F3118828461A
:102B700070BDA36AE26A13F8015BA362934202D3B9
:102B80002046FFF7D5FF002383F31188EFE700000D
:102B90002DE9F84F04460F4691469A464FF020081B
:102BA00088F311880026B346A56A4DB951462046E0
:102BB000FFF7A4FF20B185F311883046BDE8F88FF8
:102BC000D4E90A15A9EB06036D1A9D4228BF1D46DC
:102BD000402D1AD93B4601F1400251F8040B43F84D
:102BE000040B9142F9D1A36A403740334036E26A80
:102BF000A3629A4202D82046FFF79AFF8BF311880E
:102C00004E45DAD288F31188CEE738462A46FEF7D9
:102C100017F8A36A2F442B442E44E8E710B5029C12
:102C20000172043304FB0321C0E906130023C0E949
:102C30000A33039B0363049BC460C0E90000C0E93E
:102C40000422C0E90842436310BD0000026AC2606A
:102C5000426AC0E904220022C0E90A226FF00101A1
:102C6000FEF762BED0E904239A4201D1C26822B9BC
:102C7000184650F8043B0B60704700207047000076
:102C8000C368C2690133C360436913448269436105
:102C9000934224BF436A43610021FEF739BE00001E
:102CA00038B504460D46E3683BB123691A1DA2629C
:102CB000E2691344E362002007E0237A33B929462E
:102CC0002046FEF715FE0028EDDA38BD6FF0010052
:102CD000FBE7000003691960C268013AC260C2697B
:102CE000134482690361934224BF436A0361002352
:102CF0008362036B03B118477047000070B520234F
:102D00000D460446114683F31188866A2EB9FFF7F3
:102D1000C7FF10B186F3118870BDA36A1D70A36A46
:102D2000E26A01339342A36204D3E1692046043985
:102D3000FFF7D0FF002080F31188EDE72DE9F84F71
:102D400005460C4691469A464FF0200888F31188B4
:102D50000027BB46AE6A4EB951462846FFF7A0FF92
:102D600020B186F311883846BDE8F88FD5E90A0608
:102D7000A9EB0703361A9E4228BF1E46402E1AD9D9
:102D800004F1400354F8042B40F8042B9C42F9D181
:102D9000AB6A40374033EA6AAB629A4204D8E969C9
:102DA00028460439FFF796FF8BF311884F45DAD296
:102DB00088F31188CEE721463246FDF741FFAB6A22
:102DC000344433443744E6E7D0E904239A4217D128
:102DD000C3689BB1836A8BB1043B9B1A0ED013600E
:102DE000C368013BC360C3691A44836902619A42A4
:102DF00024BF436A0361002383620123184670479E
:102E00000023FBE700F088B84FF0804300225863AE
:102E10001A610222DA6070474FF080430022DA60C4
:102E2000704700004FF08043586370474FF0804375
:102E3000586A70474B6843608B688360CB68C36097
:102E40000B6943614B6903628B6943620B680360E2
:102E50007047000008B5264B26481A6940F2FF115A
:102E60000A431A611A6922F4FF7222F001021A6100
:102E70001A691A6B0A431A631A6D0A431A651E4AC5
:102E80001B6D1146FFF7D6FF02F11C0100F58060B3
:102E9000FFF7D0FF02F1380100F58060FFF7CAFFAD
:102EA00002F1540100F58060FFF7C4FF02F17001E8
:102EB00000F58060FFF7BEFF02F18C0100F5806035
:102EC000FFF7B8FF02F1A80100F58060FFF7B2FF3D
:102ED00002F1C40100F58060FFF7ACFF02F1E001F0
:102EE00000F58060FFF7A6FFBDE8084000F09AB843
:102EF00000380240000002406C35000808B500F0C0
:102F000007FAFEF77FFCFFF79FF8BDE80840FEF7E1
:102F10007BBE000070470000104B1A6C42F00102AB
:102F20001A641A6E42F001021A660D4A1B6E93680B
:102F300043F0010393604FF0804353229A624FF0B5
:102F4000FF32DA6200229A615A63DA605A60012223
:102F50005A6108211A601C20FFF77CBD003802402E
:102F6000002004E04FF0804208B51169D3680B409F
:102F7000D9B2C9439B07116107D5202383F3118878
:102F8000FEF760FC002383F3118808BD08B5FFF746
:102F9000E9FFBDE80840FFF79FB800001F4B1A6922
:102FA0006FEAC2526FEAD2521A611A69C2F308027A
:102FB0001A614FF0FF301A695A69586100215A6945
:102FC00059615A691A6A62F080521A621A6A02F0EA
:102FD00080521A621A6A5A6A58625A6A59625A6A5E
:102FE0001A6C42F080521A641A6E42F080521A66CD
:102FF0001A6E0B4A106840F480701060186F00F46D
:103000004070B0F5007F1EBF4FF48030186719671D
:10301000536823F40073536000F05AB9003802403B
:1030200000700040334B4FF080521A64324A4FF424
:10303000404111601A6842F001021A601A68910753
:10304000FCD59A6822F003029A602A4B9A6812F023
:103050000C02FBD1196801F0F90119609A601A6835
:1030600042F480321A601A689203FCD55A6F42F01B
:1030700001025A671F4B5A6F9007FCD51F4A5A60CE
:103080001A6842F080721A601B4A53685904FCD5D2
:10309000184B1A689201FCD5194A9A60194B1A68A4
:1030A000194B9A42194B21D1194A1168194A914278
:1030B0001CD140F205121A60144A136803F00F0382
:1030C000052BFAD10B4B9A6842F002029A609A687B
:1030D00002F00C02082AFAD15A6C42F480425A6477
:1030E0005A6E42F480425A665B6E704740F2057237
:1030F000E1E700BF0038024000700040085440077C
:1031000000948838002004E011640020003C024054
:1031100000ED00E041C20F41084A08B5516913684B
:103120000B4003F00103536123B1054A13680BB14F
:1031300050689847BDE80840FEF7CEBF003C01400C
:103140008C230020084A08B5516913680B4003F02E
:103150000203536123B1054A93680BB1D0689847C5
:10316000BDE80840FEF7B8BF003C01408C230020BA
:10317000084A08B5516913680B4003F00403536112
:1031800023B1054A13690BB150699847BDE808405F
:10319000FEF7A2BF003C01408C230020084A08B57E
:1031A000516913680B4003F00803536123B1054ACA
:1031B00093690BB1D0699847BDE80840FEF78CBF12
:1031C000003C01408C230020084A08B5516913686F
:1031D0000B4003F01003536123B1054A136A0BB18E
:1031E000506A9847BDE80840FEF776BF003C0140B2
:1031F0008C230020174B10B55A691C68144004F446
:1032000078725A61A30604D5134A936A0BB1D06A47
:103210009847600604D5104A136B0BB1506B984762
:10322000210604D50C4A936B0BB1D06B9847E2058D
:1032300004D5094A136C0BB1506C9847A30504D50B
:10324000054A936C0BB1D06C9847BDE81040FEF76F
:1032500043BF00BF003C01408C2300201A4B10B537
:103260005A691C68144004F47C425A61620504D512
:10327000164A136D0BB1506D9847230504D5134AB8
:10328000936D0BB1D06D9847E00404D50F4A136ECF
:103290000BB1506E9847A10404D50C4A936E0BB144
:1032A000D06E9847620404D5084A136F0BB1506F73
:1032B0009847230404D5054A936F0BB1D06F984704
:1032C000BDE81040FEF708BF003C01408C23002001
:1032D000062108B50846FFF7BDFB06210720FFF7CA
:1032E000B9FB06210820FFF7B5FB06210920FFF7EF
:1032F000B1FB06210A20FFF7ADFB06211720FFF7DF
:10330000A9FBBDE8084006212820FFF7A3BB000069
:1033100008B5FFF743FEFDF791FDFDF73BFFFDF715
:1033200013FEFFF7F7FDBDE80840FFF76BBD000097
:10333000034611F8012B03F8012B002AF9D170473D
:1033400053544D3332463F3F3F00000053544D33FA
:1033500032463430780053544D333246343278009C
:1033600053544D3332463434365858000000000070
:10337000403300083F000000130400004C330008F5
:103380003F00000019040000563300083F00000011
:1033900021040000603300083F000000000000002E
:1033A000C50E0008B10E0008ED0E0008D90E000889
:1033B000E50E0008D10E0008BD0E0008A90E000899
:1033C000F90E0008000000000100000000000000ED
:1033D0006D61696E0000000069646C6500000000AA
:1033E000D833000850240020C82500200100000028
:1033F00001180008000000004172647550696C6F8C
:10340000740025424F415244252D424C002553451E
:103410005249414C2500000002000000000000005D
:10342000E11000084D11000840004000602A002013
:10343000702A0020020000000000000003000000CD
:1034400000000000911100080000000010000000C2
:10345000802A0020000000000100000000000000A1
:10346000242D002001010200A51B0008091B0008F3
:1034700059100008891B0008430000008034000830
:1034800009024300020100C03209040000010202E7
:10349000010005240010010524010001042402029A
:1034A0000524060001070582030800FF0904010046
:1034B000020A000000070501024000000705810222
:1034C0004000000012000000CC340008120110017E
:1034D00002000040091241570002010203010000EE
:1034E0000403090425424F41524425004B505F4BD1
:1034F000616B75746546340030313233343536379C
:103500003839414243444546000000000040000075
:1035100000400000004000000040000000000100EA
:103520000000020000000200000002000000020093
:103530000000020000000200000002000000000085
:10354000C9120008811500082D160008400040002F
:10355000842D0020842D002001000000942D0020E7
:103560008000000040010000030000000000800215
:1035700000000000AAAAAAAA00000000FFFF0000A5
:103580000000000000A00A0040040010000000003D
:10359000AAAAAAAA40000010DFFF00000000000055
:1035A000000000000001040000000000AAAAAAAA6E
:1035B00000010800FFFD0000000000000000000006
:1035C0000000000000000000AAAAAAAA0000000053
:1035D000FFFF0000000000000000000000000000ED
:1035E00000000000AAAAAAAA00000000FFFF000035
:1035F00000000000000000000000000000000000CB
:10360000AAAAAAAA00000000FFFF00000000000014
:10361000000000000000000000000000AAAAAAAA02
:1036200000000000FFFF000000000000000000009C
:1036300000000000000000000A0000000000000080
:103640000300000000000000000000000000000077
:10365000000000000000000000000000000000006A
:1036600000000000000000007A00000000000000E0
:1036700000000F00FF00960000000008040000009A
:10368000E03400080000000000000000000000001E
:0C3690000000000000000000000000002E
:00000001FF
